:100000000C94CA000C94DF000C94DF000C94DF0009
:100010000C94DF000C94DF000C94DF000C94DF00E4
:100020000C94DF000C94DF000C94DF000C94DF00D4
:100030000C94DF000C94DF000C94DF000C94DF00C4
:100040000C94DF000C94DF000C94DF000C94DF00B4
:100050000C94DF000C94DF000C94DF000C94DF00A4
:100060000C94DF000C94DF006501850168018501B7
:100070006B0185016E0185017101850174018501A6
:10008000770185017A0185017D0185018001850166
:1000900083016E616E00696E660000407A10F35A4B
:1000A00000A0724E18090010A5D4E80000E87648B8
:1000B000170000E40B54020000CA9A3B000000E164
:1000C000F505000080969800000040420F000000F7
:1000D000A08601000000102700000000E8030000D7
:1000E00000006400000000000A00000000000100A1
:1000F000000000002C76D888DC674F0823DFC1DFC2
:10010000AE59E1B1B796E5E3E453C63AE6519976C4
:1001100096E8E6C28426EB898C9B62ED407C6FFCFE
:10012000EFBC9C9F40F2BAA56FA5F490055A2AF740
:100130005C936B6CF9676DC11BFCE0E40D47FEF549
:1001400020E6B500D0ED902E0300943577050080B1
:10015000841E080000204E0A000000C80C33333310
:10016000330F986E12831141EF8D2114893BE655B0
:1001700016CFFEE6DB18D1844B381BF77C1D901D93
:10018000A4BBE424203284725E228100C9F124ECF5
:10019000A1E53D2711241FBECFEFD8E0DEBFCDBFC4
:1001A00011E0A0E0B1E0ECECF6E102C005900D92A8
:1001B000AA31B107D9F70E94D3080C94640B0C94B0
:1001C00000009B01AC0184E0220F331F441F551F28
:1001D0008A95D1F760E074E284EF90E00E941A09FA
:1001E000BA01A9014150510961097109BB27A72F23
:1001F000962F852F8093C5004093C40086E080939E
:10020000C20088E18093C10008959091C00095FFDD
:10021000FCCF9091C1009E7F9093C1008093C60057
:1002200008950F931F93CF93DF93EC018C01FE0190
:1002300001900020E9F73197EC1BFD0BC8018C1BE6
:100240009D0B8E179F0730F4F80181918F010E945A
:100250000501EDCFDF91CF911F910F910895CF93BD
:10026000DF93C82F0E94C1038EEE0E94CD038C2F16
:100270000E94CD030E94C1038FEE0E94CD038C2FFC
:100280000E94D703D82F80E00E94D703C82F0E9476
:10029000C9038C2F90E09D2BDF91CF9108950F9390
:1002A0001F93CF93DF93EC010E94BA030AEA10E098
:1002B000802F0E942F01F801EA5AF109E531F1057A
:1002C00020F5EC5CFF4F0C945B09998388831DC07B
:1002D0009B838A831AC09D838C8317C09F838E83E0
:1002E00014C09987888711C09B878A870EC09D8715
:1002F0008C870BC09F878E8708C0998B888B05C021
:100300009B8B8A8B02C09D8B8C8B0E5F1F4F003C9A
:10031000110571F680E0DF91CF911F910F91089543
:10032000CF93DF930E94C1038EEE0E94CD0384EF32
:100330000E94CD038EE20E94CD030E94C9038FE488
:1003400096E40197F1F700C0000086EF0E942F01AC
:10035000EC010E94C903CE01DF91CF9108951F9354
:10036000CF93DF93D82F0E94C1038EEE0E94CD035E
:1003700084EF0E94CD03D130E1F088F0D23029F132
:10038000D33069F584EF0E94CD030E94C9039FEB2F
:100390002EE381E0915020408040E1F713C084E3D8
:1003A0000E94CD030E94C9038FE496E40197F1F700
:1003B00009C084E70E94CD030E94C9038FE295E73C
:1003C0000197F1F700C0000016C084EB0E94CD0336
:1003D0000E94C9038FEE92ED0197F1F7F3CF84E30A
:1003E0000E94CD030E94C9038FE496E40197F1F7C0
:1003F00000C00000D0E00E94C1038EEE0E94CD0339
:1004000086EF0E94CD030E94C1038FEE0E94CD03B0
:1004100086EF0E94D703182F80E00E94D703C82FD1
:100420000E94C903812F90E0A0E0B0E0BC015527F5
:1004300044278C2F90E0A0E0B0E0BA2FA92F982F8E
:100440008827840F951FA61FB71F28E030E02D1BBB
:100450003109BC01CD0104C09595879577956795C5
:100460002A95D2F7DF91CF911F9108954F925F9215
:100470006F927F928F929F92AF92BF92CF92DF92B4
:10048000EF92FF920F931F93CF93DF9300D000D092
:100490001F92CDB7DEB769837A838B839C83FA0181
:1004A0002D83C688D788E08CF18C80EAC81A8FE04B
:1004B000D80AE108F108A7019601C701B6010E9418
:1004C0000A092B013C01ACE075946794579447945A
:1004D000AA95D1F700811181A481B5810E947B0981
:1004E0004B015C01BDE0B594A79497948794BA95AD
:1004F000D1F7A485B585A30192010E947B09BB2792
:1005000097FDB095AB2F880D991DAA1DBB1D0296B6
:10051000A11DB11D32E0B595A795979587953A95A0
:10052000D1F79C01AD0130584F4F5F4FA681B78185
:100530000E9470094B015C014FE0B694A794979418
:1005400087944A95D1F7A685B785A30192010E94A9
:100550007B092B013C015BE07594679457944794A9
:100560005A95D1F7A281B381A70196010E947B0918
:10057000DC01CB016BE0B595A795979587956A95BA
:10058000D1F7480E591E6A1E7B1E012E000C220B4D
:10059000330B72E0000F111F221F331F7A95D1F722
:1005A000400E511E621E731E0D8004C0440C551C6B
:1005B000661C771C0A94D2F782E0480E511C611C1D
:1005C000711CE2E07594679457944794EA95D1F7CB
:1005D00029813A814B815C812419350946095709E3
:1005E00080E593ECA0E0B0E0BC01CD010D8004C03B
:1005F00095958795779567950A94D2F70E940A0991
:1006000097FD0BC0660F771F881F991FA5019401E6
:100610000E941A0949015A010AC0A50194010E94C9
:100620001A0949015A01880C991CAA1CBB1C99275C
:10063000B7FC9A958B2D7A2D692D9B01AC010E94F8
:100640000A099B01AC01AEEDBBE00E9470096B0191
:100650007C01A3E4B3EEA50194010E947E09BB27AF
:1006600097FDB095AB2F6701FF24D7FCF094EF2CDA
:100670008C0D9D1DAE1DBF1D8153914FAF4FBF4FC0
:1006800044E0B595A795979587954A95D1F7BC0114
:10069000CD01680D791D8A1D9B1D0F900F900F9045
:1006A0000F900F90DF91CF911F910F91FF90EF90DE
:1006B000DF90CF90BF90AF909F908F907F906F9082
:1006C0005F904F900895CF92DF92EF92FF920F9339
:1006D0001F93CF93DF93EB012A853B85821B930BFE
:1006E0009C01A885B9850E9461096B017C018FE09E
:1006F000F594E794D794C7948A95D1F76A897B8952
:10070000CB01770FAA0BBB0BBC01CD012BE0660F11
:10071000771F881F991F2A95D1F72C893D89890158
:10072000330F220B330BA90198012C0D3D1D4E1DDB
:100730005F1D0E943C09C20ED31EE41EF51ECE8A28
:10074000DF8AE88EF98E88E0C80ED11CE11CF11C0E
:10075000C701B60134E095958795779567953A95E9
:10076000D1F7DF91CF911F910F91FF90EF90DF9024
:10077000CF90089584E08093B80083E08093B9001F
:10078000089584EA8093BC008091BC0087FFFCCF71
:10079000089584E98093BC0008958093BB0084E8A9
:1007A0008093BC008091BC0087FFFCCF0895882314
:1007B00011F084EC01C084E88093BC008091BC00FF
:1007C00087FFFCCF8091BB0008951F93CF93DF93E9
:1007D000182FD62FC42F0E94C103812F0E94CD0352
:1007E0008D2F0E94CD038C2F0E94CD0384E980932E
:1007F000BC00DF91CF911F9108950F931F93CF936A
:10080000DF93082FD62F142FC22F0E94C103802FF1
:100810000E94CD03812F0E94CD030E94C1038D2F22
:100820000E94CD038C2F0E94D70394E99093BC00C3
:10083000DF91CF911F910F9108958091BC0087FFA8
:10084000FCCF089584EC8093BC000E941D0480912D
:10085000BB00089584E88093BC000E941D04809131
:10086000BB000895EAE7F0E0808187608083ECE7D1
:10087000F0E0808180648083089590917C00907F77
:100880008F70892B80937C0080917A00806C80939C
:100890007A0080917A0084FFFCCF2091780030911B
:1008A000790090917A00906190937A00C90108953F
:1008B000CF93DF93EC01CB01BA010E94E1000E94CB
:1008C00032040E94BA03CE01DF91CF910C944F0104
:1008D0000F931F93CF93DF93EC018B010E94900144
:1008E000A0E0B0E08A8F9B8FAC8FBD8F2FEF80E7A9
:1008F00092E0215080409040E1F700C00000BE012E
:100900008A8D9B8D0E946303F801608371838283CB
:100910009383FFEF20E782E0F15020408040E1F731
:1009200000C0000081E00E94AF016E8F7F8F88A31E
:1009300099A39FEFE0E7F2E09150E040F040E1F74B
:1009400000C000006E8D7F8D88A199A121E0AE01CD
:100950000E94360224E630E040E050E00E943C096C
:10096000F8012483358346835783FFEF20E782E035
:10097000F15020408040E1F700C0000080E00E947C
:100980003D04A0E0B0E0F80180879187A287B3879B
:10099000FFEF20E782E0F15020408040E1F700C007
:1009A000000082E00E943D04A0E0B0E0F8018487EE
:1009B0009587A687B787FFEF20E782E0F1502040B8
:1009C0008040E1F700C00000DF91CF911F910F91AF
:1009D0000895FC01680F791F80E0E617F70771F0B2
:1009E0009191892728E030E087FF03C0880F842792
:1009F00001C0880F21503109B9F7EFCF0895CF9387
:100A0000DF93FC01D62FC72F87858F9386858F9321
:100A100085858F9384858F9383858F9382858F932C
:100A200081858F9380858F9387818F9386818F9324
:100A300085818F9384818F9383818F9382818F931C
:100A400081818F9380818F9380E091E09F938F933A
:100A50007F936F930E94E40AAD2FBC2FFD0101909C
:100A60000020E9F73197BF016A1B7B0B47E08D2F10
:100A70009C2F0E94E9041F928F93CF93DF9382E112
:100A800091E09F938F93CF93DF930E94E40A8DB7F9
:100A90009EB74C960FB6F8949EBF0FBE8DBF8D2F9C
:100AA0009C2FDF91CF9108950C941101A0E1B0E04B
:100AB000ECE5F5E00C9483097C011B016A01FC0163
:100AC00017821682838181FF44C39E012F5F3F4FAF
:100AD0003901F7019381F10193FD859193FF819194
:100AE0001F01882309F431C3853239F493FD8591C0
:100AF00093FF81911F01853239F4B70190E00E9484
:100B0000A80A56016501E5CF10E0512C912CFFE1B8
:100B1000F915D8F08B3279F038F4803279F08332DD
:100B2000A1F4F92DF0612EC08D3261F0803369F4AB
:100B3000292D21602DC0392D3260932E892D84609E
:100B4000982E2AC0E92DE86015C097FC2DC020ED35
:100B5000280F2A3088F496FE06C03AE0139F200D35
:100B60001124122F19C08AE0589E200D1124522EF4
:100B7000E92DE0629E2E10C08E3231F496FCE5C263
:100B8000F92DF0649F2E08C08C3621F4292D2068A1
:100B9000922E02C0883641F4F10193FD859193FFB6
:100BA00081911F018111B3CF9BEB980F933020F4FB
:100BB000992D9061805E07C09BE9980F933008F0F3
:100BC00066C1992D9F7E96FF16E09F73992E8536FC
:100BD00019F49064992E08C0863621F4392F3068B4
:100BE000932E02C01111115097FE07C01C3350F410
:100BF00044244394410E27E00BC0183038F027E01E
:100C000017E005C027E09CE3492E02C0212F412CAC
:100C1000560184E0A80EB11CF601608171818281C9
:100C20009381042DA3010E94BA096C01F981FC870C
:100C3000F0FF02C0F3FF06C091FC06C092FE06C0A2
:100C400000E205C00DE203C00BE201C000E08C85AC
:100C50008C7019F001115AC29BC297FE10C04C0C47
:100C6000FC85F4FF04C08A81813309F44A9414148A
:100C700074F528E0241578F588E0482E2CC096FC01
:100C80002AC0812F90E08C159D059CF03CEFC31687
:100C90003FEFD30674F0892D8068982E0AC0E2E0F9
:100CA000F0E0EC0FFD1FE10FF11D8081803319F49E
:100CB00011501111F4CF97FE0EC044244394410EFD
:100CC000812F90E0C816D9062CF41C1904C04424C6
:100CD000439401C010E097FE06C01C141D0434F4B8
:100CE000C601019605C085E090E002C081E090E079
:100CF00001110196112331F0212F30E02F5F3F4F7A
:100D0000820F931F252D30E08217930714F4581A91
:100D100001C0512C892D897049F4552039F0B70153
:100D200080E290E00E94A80A5A94F7CF002329F0AD
:100D3000B701802F90E00E94A80A93FC09C05520BB
:100D400039F0B70180E390E00E94A80A5A94F7CFE7
:100D500097FE4CC04601D7FE02C0812C912CC601E3
:100D600088199909F301E80FF91FFE87ED879601AD
:100D700024193109388B2F87012F10E01195019527
:100D800011093FEF8316930629F4B7018EE290E034
:100D90000E94A80AC814D9044CF08F859889881538
:100DA000990524F4ED85FE85818101C080E3F1E0A1
:100DB0008F1A91082D853E852F5F3F4F3E872D87E7
:100DC000801691062CF0B70190E00E94A80AD9CFB6
:100DD000C814D90441F49A81963320F4953319F458
:100DE0003C8534FF81E3B70190E04EC08A818133B6
:100DF00019F09C859F7E9C87B70190E00E94A80A0D
:100E0000111105C094FC18C085E690E017C0B70129
:100E10008EE290E00E94A80A1E5F82E001E0080FC7
:100E2000F301E80FF11D8081B70190E00E94A80A4C
:100E3000802F0113F3CFE6CF85E490E0B7010E9445
:100E4000A80AD7FC06C0C114D10441F4EC85E4FF24
:100E500005C0D194C194D1088DE201C08BE2B701E5
:100E600090E00E94A80A80E32AE0C216D1042CF088
:100E70008F5FFAE0CF1AD108F7CFB70190E00E9458
:100E8000A80AB701C601C0960E94A80A54C18336B9
:100E900031F0833779F0833509F056C020C0560110
:100EA00032E0A30EB11CF6018081898301E010E0DD
:100EB000630112C05601F2E0AF0EB11CF601C08012
:100EC000D18096FE03C0612F70E002C06FEF7FEF0C
:100ED000C6010E949D0A8C01F92DFF7714C05601AE
:100EE00022E0A20EB11CF601C080D18096FE03C0A4
:100EF000612F70E002C06FEF7FEFC6010E94920A7F
:100F00008C01F92DF0689F2EF3FD1AC0852D90E01D
:100F100008171907A8F4B70180E290E00E94A80A18
:100F20005A94F4CFF60197FC859197FE81916F0159
:100F3000B70190E00E94A80A51105A94015011097B
:100F40000115110579F7F7C0843611F0893661F57E
:100F5000560197FE09C024E0A20EB11CF601608183
:100F60007181828193810AC0F2E0AF0EB11CF6015B
:100F700060817181072E000C880B990BF92DFF768B
:100F80009F2E97FF09C090958095709561957F4F32
:100F90008F4F9F4FF0689F2E2AE030E0A3010E9400
:100FA000060BC82EC6183FC0092D853721F40F7EC9
:100FB0002AE030E01DC0097F8F3691F018F48835A3
:100FC00059F0C3C0803719F0883711F0BEC00061F6
:100FD00004FF09C0046007C094FE08C0066006C094
:100FE00028E030E005C020E130E002C020E132E03E
:100FF000560107FF09C084E0A80EB11CF60160810C
:1010000071818281938108C0F2E0AF0EB11CF601BC
:101010006081718180E090E0A3010E94060BC82EE0
:10102000C6180F77902E96FE0BC0092D0E7FC116A5
:1010300050F494FE0AC092FC08C0092D0E7E05C033
:10104000DC2C092D03C0DC2C01C0D12E04FF0DC007
:10105000FE01EC0DF11D8081803311F4097E09C081
:1010600002FF06C0D394D39404C0802F867809F081
:10107000D39403FD11C000FF06C01C2DD51480F4CD
:10108000150D1D190DC0D51458F4B70180E290E07C
:101090000E94A80AD394F7CFD51410F45D1801C0AC
:1010A000512C04FF10C0B70180E390E00E94A80A11
:1010B00002FF17C001FD03C088E790E002C088E589
:1010C00090E0B7010CC0802F867859F001FF02C074
:1010D0008BE201C080E207FD8DE2B70190E00E9443
:1010E000A80AC11638F4B70180E390E00E94A80A6C
:1010F0001150F7CFCA94F301EC0DF11D8081B701B7
:1011000090E00E94A80AC110F5CF15C0F4E0F515D3
:1011100060F584E0581A93FE1FC0011127C02C858A
:1011200023FF2AC002E910E0392D3071932EF80117
:101130008491811124C0552009F4E4CCB70180E2E8
:1011400090E00E94A80A5A94F6CFF7018681978111
:1011500026C08FEF9FEF23C0B70180E290E00E948E
:10116000A80A5A945110F8CFD8CF512CB701802F2C
:1011700090E00E94A80AD3CF06E910E0D5CF9110E5
:101180008052B70190E00E94A80A0F5F1F4FCFCF97
:1011900023E0251510F483E0BDCF512CC0CF60961D
:1011A000E2E10C949F09CF93DF93CDB7DEB7C4562D
:1011B000D1090FB6F894DEBF0FBECDBF40E855E2AF
:1011C00060E070E0CE01C3960E9458042FEF83ECDC
:1011D00099E0215080409040E1F700C00000BE013E
:1011E0006B5A7F4FCE01C3960E9468042FEF8BE7A6
:1011F00092E9215080409040E1F700C00000BE011C
:101200006F5F7F4FCE018B5A9F4F0E94FF040E9459
:101210005405DCCFDB018F939F930E947009BF912F
:10122000AF91A29F800D911DA39F900DB29F900D35
:1012300011240895A1E21A2EAA1BBB1BFD010DC0AB
:10124000AA1FBB1FEE1FFF1FA217B307E407F50776
:1012500020F0A21BB30BE40BF50B661F771F881F52
:10126000991F1A9469F760957095809590959B01E8
:10127000AC01BD01CF010895052E97FB1EF400942B
:101280000E94530957FD07D00E941A0907FC03D09A
:101290004EF40C94530950954095309521953F4F4D
:1012A0004F4F5F4F089590958095709561957F4F52
:1012B0008F4F9F4F0895EE0FFF1F0590F491E02D83
:1012C0000994A29FB001B39FC001A39F700D811D1F
:1012D0001124911DB29F700D811D1124911D08953F
:1012E0000E946109A59F900DB49F900DA49F800D51
:1012F000911D11240895B7FF0C9470090E94700984
:10130000821B930B08952F923F924F925F926F92A0
:101310007F928F929F92AF92BF92CF92DF92EF9285
:10132000FF920F931F93CF93DF93CDB7DEB7CA1B06
:10133000DB0B0FB6F894DEBF0FBECDBF09942A8831
:10134000398848885F846E847D848C849B84AA84D9
:10135000B984C884DF80EE80FD800C811B81AA8166
:10136000B981CE0FD11D0FB6F894DEBF0FBECDBF31
:10137000ED010895283008F027E03327DA01990FAE
:10138000311D87FD916000966105710539F4326069
:101390002E5F3D9330E32A95E1F708959F3F30F0AB
:1013A00080387105610509F03C5F3C5F3D939130E9
:1013B00008F08068911DDF93CF931F930F93FF92E6
:1013C000EF92192F987F9695E92F96959695E90FAC
:1013D000FF27EC50FF4F99273327EE24FF24A70166
:1013E000E70105900894079428F4360FE71EF81ECD
:1013F000491F511D660F771F881F991F0694A1F77B
:101400000590079428F4E70EF81E491F561FC11DCA
:10141000770F881F991F661F0694A1F70590079400
:1014200028F4F80E491F561FC71FD11D880F991F9A
:10143000661F771F0694A1F70590079420F4490FC3
:10144000561FC71FD81F990F661F771F881F069446
:10145000A9F784911095177041F0D695C7955795C7
:101460004795F794E7941A95C1F7EAE9F0E0689494
:101470001590159135916591959105907FE2739541
:10148000E118F10A430B560BC90BD009C0F7E10C68
:10149000F11E431F561FC91FD01D7EF4703311F477
:1014A0008A95E6CFE894015030F0080F0AF400273F
:1014B000021708F4202F2395022F7A3328F079E3BE
:1014C0007D932A95E9F710C07D932A9589F60694B5
:1014D00097956795379517951794E118F10A430B7F
:1014E000560BC90BD00998F023957E9173957A33EA
:1014F00008F070E37C932013B8F77E9170617D93C0
:1015000030F0839571E37D9370E32A95E1F7112420
:10151000EF90FF900F911F91CF91DF91992787FD59
:1015200090950895FC010590615070400110D8F726
:10153000809590958E0F9F1F0895FC01615070401B
:1015400001900110D8F7809590958E0F9F1F0895F8
:101550000F931F93CF93DF93FB01238121FD03C0E2
:101560008FEF9FEF2CC022FF16C046815781248148
:1015700035814217530744F4A081B1819D012F5F4B
:101580003F4F318320838C93268137812F5F3F4FDC
:101590003783268314C08B01EC01FB010084F185A5
:1015A000E02D0995892BE1F6D80116968D919C9135
:1015B0001797019617969C938E931697CE01DF91FD
:1015C000CF911F910F910895AEE0B0E0EAEEFAE0FE
:1015D0000C9491090D891E8986E08C831A830983F6
:1015E0008FEF9FE79E838D83AE01475E5F4F6F89CC
:1015F000788DCE0101960E945605EF81F885E00FA7
:10160000F11F10822E96E4E00C94AD09FA01AA278E
:10161000283051F1203181F1E8946F936E7F6E5F35
:101620007F4F8F4F9F4FAF4FB1E03ED0B4E03CD0E3
:10163000670F781F891F9A1FA11D680F791F8A1FC6
:10164000911DA11D6A0F711D811D911DA11D20D02D
:1016500009F468943F912AE0269F11243019305DE7
:101660003193DEF6CF010895462F4770405D4193D8
:10167000B3E00FD0C9F7F6CF462F4F70405D4A3325
:1016800018F0495D31FD4052419302D0A9F7EACFED
:10169000B4E0A6959795879577956795BA95C9F71C
:1016A00000976105710508959B01AC010A2E06940F
:1016B0005795479537952795BA95C9F7620F731FC8
:0C16C000841F951FA01D0895F894FFCF13
:1016CC004120256C6420256C6420256C6420256CDD
:0A16DC00640025732025580D0A0054
:00000001FF
